:100000000C9463000C948B000C948B000C940A0AE3
:100010000C940A0A0C940A0A0C948B000C948B0022
:100020000C948B000C948B000C948B000C94820A23
:100030000C948B000C948B000C948B000C948B0014
:100040000C9468090C948B000C94D8090C94B20998
:100050000C948B000C948B000C948B000C948B00F4
:100060000C943E0B0C948B00000000002400270031
:100070002A0000000008000201000003040700003D
:1000800000000000000000000000230026002900FE
:1000900000000000250028002B00040404040404D0
:1000A0000404020202020202030303030303010227
:1000B00004081020408001020408102001020408F6
:1000C0001020590C791111241FBECFEFD8E0DEBFEC
:1000D000CDBF12E0A0E0B1E0E2E2FDE202C0059097
:1000E0000D92AA33B107D9F724E0AAE3B2E001C028
:1000F0001D92AE30B207E1F710E0C2E6D0E004C0D6
:100100002197FE010E948314C136D107C9F70E94CE
:10011000700D0C9484160C940000CF92DF92EF9235
:10012000FF92CF93DF93B091FE03A0E08111AB2F3C
:100130008091FF0390E0880F991FAC014A575F4FF1
:10014000C0900404D0900504E0900604F0900704E9
:1001500030E020E0FA01C591D491E881B90190E046
:1001600080E0EB23EA130AC02F5F3F4F6C157D053B
:100170008E059F0578F36FEF7FEFCB01DF91CF9175
:10018000FF90EF90DF90CF900895833081F028F4B6
:10019000813099F08230A9F008958730A9F0883035
:1001A000C9F08430B1F4809180008F7D03C08091CC
:1001B00080008F7780938000089584B58F7784BD09
:1001C000089584B58F7DFBCF8091B0008F778093A9
:1001D000B00008958091B0008F7DF9CF1F93CF9329
:1001E000DF93282F30E0F901EE58FF4F8491F90199
:1001F000E255FF4FD491F901E656FF4FC491CC234D
:10020000A9F0162F81110E94C500EC2FF0E0EE0F2F
:10021000FF1FE057FF4FA591B4918FB7F894EC9171
:10022000111108C0D095DE23DC938FBFDF91CF91F1
:100230001F910895DE2BF8CFCF93DF9390E0FC0160
:10024000E255FF4F249186569F4FFC0184918823ED
:10025000C9F090E0880F991FFC01E859FF4FA59164
:10026000B491FC01E057FF4FC591D49161110DC0CD
:100270009FB7F8948C91209582238C9388812823B2
:1002800028839FBFDF91CF910895623051F49FB7CB
:10029000F8943C91822F809583238C93E8812E2BB8
:1002A000EFCF8FB7F894EC912E2B2C938FBFEACF22
:1002B0003FB7F8948091F3029091F402A091F50277
:1002C000B091F60226B5A89B05C02F3F19F0019604
:1002D000A11DB11D3FBFBA2FA92F982F8827BC01A0
:1002E000CD01620F711D811D911D42E0660F771FC8
:1002F000881F991F4A95D1F708958F929F92AF92C8
:10030000BF92CF92DF92EF92FF924B015C010E946D
:1003100058016B017C010E9458016C197D098E09FE
:100320009F09683E734081059105A8F321E0821A78
:100330009108A108B10888EEC80E83E0D81EE11C20
:10034000F11C81149104A104B10429F7FF90EF90EE
:10035000DF90CF90BF90AF909F908F900895CF92F5
:10036000DF92EF92FF920F931F93CF93DF93CDB75E
:10037000DEB7C054D1400FB6F894DEBF0FBECDBF7C
:100380002FB7F8948091F7029091F802A091F902AA
:10039000B091FA022FBF4091000450910104609186
:1003A0000204709103048C019D01041B150B260BA4
:1003B000370BB901A801403D57406105710590F424
:1003C00080910804C05CDE4F0FB6F894DEBF0FBE0C
:1003D000CDBFDF91CF911F910F91FF90EF90DF90F4
:1003E000CF9008958093000490930104A093020499
:1003F000B09303041092FB031092FA031092F903D6
:100400001092F8031092F70362E08091FC030E94BF
:100410001C0161E070E080E090E00E947D0161E0FD
:100420008091FC030E941C0160E08091FC030E940B
:10043000EE008091FD038551823020F58BE291E141
:100440000197F1F762E08091FC030E941C0180910A
:10045000090490E08230910538F0880F991F880FC9
:10046000991F05970197F1F7F89480E00E948D009D
:100470006F3F7F4F8F4F9F4F61F410920804789425
:1004800080E0A0CF64E170E080E090E00E947D0118
:10049000D9CF81E00E948D006F3F7F4F8F4F9F4FDC
:1004A00061F38E010F5F1F4F6E018FEBC81A8EEF45
:1004B000D80A780180E00E948D00F7016083718383
:1004C0008283938381E00E948D00F70164837583AA
:1004D00086839783F8E0EF0EF11CEC14FD0451F7CE
:1004E000789430E020E0F801C080D180E280F38091
:1004F0004481558166817781FFEFCF16DF06EF06D5
:10050000FF0631F04F3F8FEF58076807780719F45F
:1005100010920804B5CFF90183E0F595E7958A9527
:10052000E1F7E950FC4F8081880FC416D506E60636
:10053000F70610F180832F5F3F4F085F1F4F28326F
:10054000310589F64091FB032091F7038091F80370
:10055000280F3327331F8091F903280F311D809115
:10056000FA03820F932F911D99274817190681F6D8
:1005700081E08093080426CF8160DCCFDC01ED911F
:10058000FC910190F081E02D0994AF92BF92CF923F
:10059000DF92EF92FF920F931F93CF93DF936C0143
:1005A0007B018B01040F151FEB015E01AE18BF0824
:1005B000C017D10759F06991D601ED91FC910190D6
:1005C000F081E02DC6010995892B79F7C501DF91EE
:1005D000CF911F910F91FF90EF90DF90CF90BF9040
:1005E000AF900895FC01538D448D252F30E0842F6A
:1005F00090E0821B930B541710F0CF96089501974B
:100600000895FC01918D828D981761F0A28DAE0F37
:10061000BF2FB11D5D968C91928D9F5F9F73928FBE
:1006200090E008958FEF9FEF0895FC01918D828DEA
:10063000981731F0828DE80FF11D858D90E00895B7
:100640008FEF9FEF0895FC01918D228D892F90E00F
:10065000805C9F4F821B91098F73992708958BEFC0
:1006600092E00E94230321E0892B09F420E0822FED
:10067000089580E090E0892B29F00E942F038111DA
:100680000C9400000895FC01A48DA80FB92FB11D92
:10069000A35ABF4F2C91848D90E001968F739927B8
:1006A000848FA689B7892C93A089B1898C91837096
:1006B00080648C93938D848D981306C00288F3898F
:1006C000E02D80818F7D80830895EF92FF920F93BC
:1006D0001F93CF93DF93EC0181E0888F9B8D8C8DEE
:1006E00098131AC0E889F989808185FF15C09FB7E2
:1006F000F894EE89FF896083E889F98980818370A5
:10070000806480839FBF81E090E0DF91CF911F9153
:100710000F91FF90EF900895F62E0B8D10E00F5F74
:100720001F4F0F731127E02E8C8D8E110CC00FB64A
:1007300007FCFACFE889F989808185FFF5CFCE01E2
:100740000E944303F1CFEB8DEC0FFD2FF11DE35A17
:10075000FF4FF0829FB7F8940B8FEA89FB89808165
:100760008062CFCFCF93DF93EC01888D8823B9F0DF
:10077000AA89BB89E889F9898C9185FD03C08081AC
:1007800086FD0DC00FB607FCF7CF8C9185FFF2CF29
:10079000808185FFEDCFCE010E944303E9CFDF9139
:1007A000CF91089508952091F0023091F102281719
:1007B000390771F49091EE028091EF02981741F0A1
:1007C000E091EE02F0E0E255FD4F808190E0089567
:1007D0008FEF9FEF08950895EF92FF920F931F936D
:1007E000CF93DF93DC015C96ED90FC905D97E11474
:1007F000F10479F481E090E013969C938E93129724
:1008000090E080E0DF91CF911F910F91FF90EF90EA
:1008100008955196ED91FC91529750968C91509776
:10082000982F90950FB75E962C915E97122F1270AD
:1008300021FD6095F8942081112319F1282B208344
:10084000E7012197F1F728E0462F50E0308160FF63
:100850001AC0382B3083E7012197F1F7BA0175955B
:100860006795215089F7112381F080818923808346
:100870000FBF5C968D919C910197F1F781E090E01C
:10088000C1CF2923DCCF3923E5CF9081892BEFCF4E
:100890002091F0023091F1022817390761F480911C
:1008A000EF022091EE0290E0805C9F4F821B910945
:1008B0008F739927089590E080E008952091F002C9
:1008C0003091F10228173907B9F49091EE02809126
:1008D000EF02981789F0E091EE02F0E0E255FD4F4B
:1008E00080812091EE0230E02F5F3F4F2F7333273E
:1008F0002093EE0290E008958FEF9FEF08952FB7B9
:10090000F8948091F7029091F802A091F902B091C9
:10091000FA022FBF8093C8039093C903A093CA0320
:10092000B093CB0380EC93E00E945E0497FF26C057
:100930002FB7F8948091F7029091F802A091F902F4
:10094000B091FA022FBF4091C8035091C903609142
:10095000CA037091CB03841B950BA60BB70B409178
:10096000C4035091C5036091C6037091C7038417F7
:100970009507A607B707B0F28FEF9FEF0895209174
:100980006302260F3327331F21323105ECF4209107
:100990008702FC0190E080E0243069F082E0089555
:1009A000A09163022191AC014D5B5D4FA40FB52F67
:1009B000B11D2C930196861798F380916302680FFE
:1009C0006093630280E0089581E008958FEF9FEFC8
:1009D00008958FEF9FEF089580913C0290E09195EC
:1009E000819591090895CF93DF93CB01EA01642F9C
:1009F0000E94BF04CE01DF91CF910895CF93DF9382
:100A00001F92CDB7DEB7698361E0CE0101960E94E7
:100A1000BF0481E090E00F90DF91CF91089590E0C6
:100A200080E00895CF93DF93EC0160E08E810E9417
:100A3000EE0061E08E810E94EE0060E08E810E94F7
:100A4000EE008BE891E00197F1F7DF91CF910895E7
:100A5000CF92DF92EF92FF920F931F93CF93DF938A
:100A60006C017C0187E0E80EF11CD0E0C0E0062FAD
:100A700010E0B8010C2E02C0759567950A94E2F754
:100A80006170F70181917F010E94EE002196C430D0
:100A9000D10579F7C601DF91CF911F910F91FF909A
:100AA000EF90DF90CF900C941205CF92DF92EF92EF
:100AB000FF920F931F93CF93DF93EC01F62E642FD9
:100AC0008C810E94EE008D818F3F19F060E00E94C2
:100AD000EE000F2D10E08F8584FF25C06E0187E0AA
:100AE000C80ED11CF12CE12CB8010E2C02C075955A
:100AF00067950A94E2F76170F60181916F010E9497
:100B0000EE00FFEFEF1AFF0A88E0E816F10461F744
:100B1000CE01DF91CF911F910F91FF90EF90DF9069
:100B2000CF900C941205B80184E0759567958A956D
:100B3000E1F7CE010E9428056F2DCE01DF91CF9104
:100B40001F910F91FF90EF90DF90CF900C942805AC
:100B500040E0682F8FED93E00C945505CF93DF9321
:100B6000823029F49091EE0398609093EE03809385
:100B7000F2031092F30380E48093F40380E1809306
:100B8000F50380E58093F60361E08091E3030E9422
:100B90001C018091E4038F3F19F061E00E941C0169
:100BA00061E08091E5030E941C01CFEDD3E09E013E
:100BB0002F5D33408091EE0384FD0BC084E090E014
:100BC00021962817390744F461E08E810E941C01A8
:100BD000EECF88E090E0F4CF8BE39DE00197F1F752
:100BE00060E08091E3030E94EE0060E08091E50305
:100BF0000E94EE008091E4038F3F19F060E00E94B4
:100C0000EE008091EE0384FD39C063E08FED93E048
:100C10000E942805CBE4D6E4CE010197F1F763E00A
:100C20008FED93E00E9428052197F1F763E08FEDA7
:100C300093E00E94280583E592E00197F1F762E0D6
:100C40008FED93E00E9428058091EE0380620E9460
:100C5000A80584E08093EF038CE00E94A80581E062
:100C60000E94A8058BE39FE10197F1F782E0809352
:100C7000F00386E0DF91CF910C94A80580620E947A
:100C8000A8058BE496E40197F1F78091EE0380626A
:100C90000E94A80583E592E00197F1F78091EE03A9
:100CA00080620E94A805D0CF9091F203691710F0DE
:100CB0006FEF690FE62FF0E0E152FC4F9489890F46
:100CC00080680C94A80541E00E94550581E090E001
:100CD0000895FB0101900020E9F73197AF01461B11
:100CE000570BDC01ED91FC910280F381E02D09941A
:100CF0008F929F92AF92BF92EF92FF920F931F93AA
:100D0000CF93DF93CDB7DEB7A1970FB6F894DEBFD0
:100D10000FBECDBF7C01FA01CB0119A2223008F42D
:100D20002AE08E010F5D1F4F822E912CB12CA12C39
:100D3000BF01A50194010E942E13F901CA016A3076
:100D40000CF5605DD8016E938D01232B242B252B90
:100D500079F790E080E0109721F0BD01C7010E9473
:100D60006906A1960FB6F894DEBF0FBECDBFDF9126
:100D7000CF911F910F91FF90EF90BF90AF909F90F8
:100D80008F900895695CDECFCF92DF92EF92FF9251
:100D90000F931F93CF93DF936B01770FEE08FF083C
:100DA000F7FE1BC0EC016DE20E94BE028C014427DD
:100DB0005527BA014C195D096E097F092AE0CE0159
:100DC0000E947806800F911FDF91CF911F910F91A4
:100DD000FF90EF90DF90CF9008952AE0B701A60131
:100DE000DF91CF911F910F91FF90EF90DF90CF9007
:100DF0000C9478062F923F924F925F926F927F925F
:100E00008F929F92AF92BF92CF92DF92EF92FF921A
:100E10001F93CF93DF93EC016A017B01722EAB012C
:100E20009601CB01B6010E94721466E371E0811154
:100E300026C046015701E894B7F82FEF3FEF4FE780
:100E40005FE7C501B4010E94721481110CC02FEF3D
:100E50003FEF4FE75FE7C501B4010E949E116AE3CF
:100E600071E0181664F02FEF3FEF4FE75FE4C70122
:100E7000B6010E946D141816B4F46EE371E0CE0151
:100E8000DF91CF911F91FF90EF90DF90CF90BF90B7
:100E9000AF909F908F907F906F905F904F903F901A
:100EA0002F900C9469062FEF3FEF4FE75FECC701DF
:100EB000B6010E949E1187FDE0CF20E030E0A9013D
:100EC000C701B6010E949E11312C212C87FF09C059
:100ED0006DE2CE010E94BE021C01F7FAF094F7F811
:100EE000F09410E060E070E080E09FE3711641F064
:100EF00020E030E040E251E40E94CC131F5FF6CFC7
:100F0000A70196010E9460132B013C010E943E1430
:100F10004B015C012AE0BC01A401CE010E947806CD
:100F20007C01E20CF31C1123C1F1C501B4010E9444
:100F3000A3119B01AC01C301B2010E945F134B01DD
:100F40005C016EE2CE010E94BE02E80EF91E115055
:100F500020F120E030E040E251E4C501B4010E94FC
:100F600004122B013C010E943E144B01B12CA12C18
:100F70002AE0B501A401CE010E947806E80EF91E10
:100F8000C501B4010E94A3119B01AC01C301B201D0
:100F90000E945F134B015C01DACFC701DF91CF9153
:100FA0001F91FF90EF90DF90CF90BF90AF909F90F8
:100FB0008F907F906F905F904F903F902F9008950B
:100FC0000F931F93CF93DF93EC010E9469068C016E
:100FD00062E471E0CE010E946906800F911FDF91EB
:100FE000CF911F910F9108950C94690661E08CE0F8
:100FF0000E94EE0060E08BE00E94EE0060E08AE07C
:101000000E94EE0060E08AE00E94EE0061E08AE06B
:101010000E94540665E471E08FED93E00E94F407AE
:101020006CE471E080EC93E00C94E0073F924F9207
:101030005F926F927F928F929F92AF92BF92CF9268
:10104000DF92EF92FF920F931F93CF93DF9361E0B4
:101050008BE00E94EE0061E08AE00E94EE0061E019
:101060008AE00E94EE0060E08CE00E94EE001092A8
:101070003B0210923A0268E5E62E62E0F62E78E82E
:10108000C72ED12CE4EB4E2E512C612C712CA0914B
:101090003A02B0913B02A53BB1050CF05BC0309029
:1010A000BD038BE0831508F44BC08091BF0387011B
:1010B000081B110987FD1395000F111F000F111F49
:1010C0008091BE03E601C81BD10987FDD395CC0FE3
:1010D000DD1FCC0FDD1F4E010D2E000CAA08BB0832
:1010E000B7FF02C0B0E0A0E09801012E000C440B55
:1010F000550B281939094A095B090E94EF12A3010F
:1011000092010E94C512820E931EA41EB51E8C165B
:101110009D062CF0E801801691060CF4E40122975C
:10112000CC0FDD1F2FB7F894832D90E0FC01EE0F5C
:10113000FF1FE80FF91FE856FC4FD283C1832FBF72
:1011400080913A0290913B02019690933B028093EA
:101150003A029DCF61E08AE00E9454066BE571E09F
:101160008FED93E00E94F40762E671E080EC93E07B
:10117000DF91CF911F910F91FF90EF90DF90CF9073
:10118000BF90AF909F908F907F906F905F904F90A7
:101190003F900C94E0070F931F93CF93DF93EC01E4
:1011A00088819981009759F02A813B81261737075A
:1011B00030F081E0DF91CF911F910F9108958B0165
:1011C0006F5F7F4F0E94AE15009759F09983888317
:1011D0001B830A832C813D81232B59F7FC0110824C
:1011E000E8CF80E0E7CF1F93CF93DF9385ED809327
:1011F000BC0080913F0290914002A0914102B091C9
:1012000042020796A11DB11D23E0B695A7959795BB
:1012100087952A95D1F72091BC0024FD03C0109238
:10122000870252C040913F025091400260914102BA
:1012300070914202452B462B472B69F30097A1057D
:10124000B10541F02AE22A95F1F700C00197A10902
:10125000B109E1CF80913E02C1E0C0933D028823F5
:1012600099F1D091B8001091BA008091BC008A7BAE
:101270008093BC0060E082E10E94EE0060E083E1C8
:101280000E94EE0010928702C09389021092880299
:1012900061E082E10E94EE0061E083E10E94EE00E5
:1012A0008091B9008E7F8093B9008091B9008D7FC5
:1012B0008093B90088E48093B80085E48093BC00F3
:1012C0001093BA00D093B800DF91CF911F91089589
:1012D0001F920F920FB60F9211242F933F938F936B
:1012E0009F93AF93BF938091F7029091F802A091E2
:1012F000F902B091FA023091F20223E0230F2D3768
:1013000058F50196A11DB11D2093F2028093F702BA
:101310009093F802A093F902B093FA028091F3023D
:101320009091F402A091F502B091F6020196A11DF0
:10133000B11D8093F3029093F402A093F502B09351
:10134000F602BF91AF919F918F913F912F910F9096
:101350000FBE0F901F90189526E8230F0296A11D2F
:10136000B11DD2CF1F920F920FB60F9211242F935F
:101370003F934F935F936F937F938F939F93AF931D
:10138000BF93EF93FF938BEF92E00E944303FF9193
:10139000EF91BF91AF919F918F917F916F915F91ED
:1013A0004F913F912F910F900FBE0F901F90189566
:1013B0001F920F920FB60F9211242F938F939F932A
:1013C000EF93FF93E0910B03F0910C038081E09188
:1013D0001103F091120382FD1BC0908180911403D0
:1013E0008F5F8F7320911503821741F0E0911403F2
:1013F000F0E0E550FD4F958F80931403FF91EF913E
:101400009F918F912F910F900FBE0F901F90189565
:101410008081F4CF1F920F920FB60F9211242F9359
:101420003F934F935F936F937F938F939F93AF936C
:10143000BF93EF93FF93E091F002F091F1023097A8
:1014400049F0A685B7858585968D91FF14C09C913E
:101450008923A1F4FF91EF91BF91AF919F918F915B
:101460007F916F915F914F913F912F910F900FBEA0
:101470000F901F9018959C91892361F7A389B489D7
:101480009C918589809589238C938689978901977A
:10149000F1F7608D718DA685B785558538E020E020
:1014A000CB010197F1F7822F90E095958795282F32
:1014B0004C91452309F02068315091F7868D81FDCC
:1014C00020958091EF0290E001968F7399273091DB
:1014D000EE02381799F0A091EF02B0E0A255BD4F8F
:1014E0002C938093EF02828D938D0197F1F7A3895E
:1014F000B4898C919589892B8C93ACCF868D816032
:10150000868FF1CF1F920F920FB60F9211242F9357
:101510003F934F935F936F937F938F939F93AF937B
:10152000BF93CF93DF93EF93FF938091AD02C09170
:10153000BC03D0E087FF24C0109285001092840085
:101540008091AD028F5F8093AD028091AD02082E35
:10155000000C990B8C179D0724F48091AD028C3000
:10156000C4F18091840090918500049680349C4958
:1015700008F47AC08091840090918500049676C02A
:101580008091AD02082E000C990B8C179D07C4F6B4
:10159000E091AD028E2FEE0F990BFC01EE0FFF1FB5
:1015A000E80FF91FE856FC4F808186FFC9CFE09114
:1015B000AD028E2FEE0F990BFC01EE0FFF1FE80F0F
:1015C000F91FE856FC4F808160E08F730E94EE00A7
:1015D000B7CF2091840030918500E091AD028E2F2D
:1015E000EE0F990BFC01EE0FFF1FE80FF91FE856F5
:1015F000FC4F81819281820F931F90938900809389
:101600008800E091AD028E2FEE0F990BFC01EE0FDA
:10161000FF1FE80FF91FE856FC4F808186FF11C0BD
:10162000E091AD028E2FEE0F990BFC01EE0FFF1F24
:10163000E80FF91FE856FC4F808161E08F730E942C
:10164000EE00FF91EF91DF91CF91BF91AF919F910C
:101650008F917F916F915F914F913F912F910F905B
:101660000FBE0F901F90189580E49CE9909389001D
:10167000809388008FEF8093AD02E3CF1F920F928B
:101680000FB60F9211242F933F934F935F936F9355
:101690007F938F939F93AF93BF93EF93FF9380912B
:1016A000B900887F803609F44AC0F0F5883209F421
:1016B000A5C018F5803109F499C0B8F4882309F45D
:1016C000F5C0883009F492C0FF91EF91BF91AF91BE
:1016D0009F918F917F916F915F914F913F912F914A
:1016E0000F900FBE0F901F901895883109F486C097
:1016F000803251F78093860214C0803409F49BC075
:1017000040F48033B9F38833F9F68093860285EC90
:10171000AEC0803509F483C0883509F494C088349C
:1017200099F60E94F308D0CF883909F48AC038F5B9
:10173000883729F050F4883611F0803729F683E095
:10174000809387021092850255C0883809F479C0C9
:10175000803919F0803809F0B7CF80918502803246
:1017600008F06FC0E091850281E08E0F80938502C2
:101770008091BB00F0E0EB59FD4F80833BC0803B84
:1017800039F0D0F4803A09F477C0883A09F09CCF58
:1017900084E0809387021092640210926302F0E06A
:1017A000E0E009958091630281110FC081E0809390
:1017B00063021092430209C0803C09F4A8CF883C20
:1017C00009F4A5CF883B09F07FCFE091640281E066
:1017D0008E0F80936402F0E0ED5BFD4F808180937B
:1017E000BB00909164028091630229C08091AC0299
:1017F0008093BB0085EC8093BC0066CF9091AB02D8
:101800008091AA02981758F5E091AB0281E08E0F03
:101810008093AB02F0E0E657FD4F8081E9CFE09185
:10182000AB0281E08E0F8093AB028091BB00F0E0B1
:10183000E657FD4F80839091AB028091AA029817E2
:10184000C8F285E8D8CFE091AB0281E08E0F80939B
:10185000AB028091BB00F0E0E657FD4F80838091A2
:10186000890281115ECF81E08093880284EA8093AF
:10187000BC001092870228CF85EC8093BC001092A8
:10188000870280918502803230F4E0918502F0E099
:10189000EB59FD4F10826091850270E085E692E081
:1018A000F0E0E0E00995109285020ECF10928602DA
:1018B00038CFCF92DF92EF92FF921092FE021092F9
:1018C000FD0248EEC42E43E0D42EE12CF12CC09250
:1018D000FF02D0920003E0920103F09202038AE03B
:1018E00091E09093FC028093FB0285EC90E0909352
:1018F00008038093070384EC90E090930A0380939D
:10190000090380EC90E090930C0380930B0381EC2F
:1019100090E090930E0380930D0382EC90E09093FF
:10192000100380930F0386EC90E090931203809352
:1019300011031092140310921503109216031092C3
:10194000170389E08093FC038BE08093FD03E7EBB2
:10195000F0E0E491E093FE03E3EAF0E0E491E09349
:10196000FF0380E89EE3A0E0B0E08093040490933E
:101970000504A0930604B09307041092E2031092AA
:10198000E1038EE291E09093E0038093DF0388E02F
:101990008093E3038FEF8093E40387E08093E50374
:1019A00082E08093E60383E08093E70384E0809302
:1019B000E80385E08093E9031092EA031092EB03B9
:1019C0001092EC031092ED031092EE0381E00E945E
:1019D000AE051092C3031092C203C092C403D0920A
:1019E000C503E092C603F092C7038CE191E09093A7
:1019F000C1038093C0031092D7031092D6031092B4
:101A0000D9031092D8031092DB031092DA031092DC
:101A1000DD031092DC036091DE036E7F6D7F6093C7
:101A2000DE036695617081E0682780E00E94EE0029
:101A300061E080E00E941C01EEEAF0E0E491E093B6
:101A4000D003EAE9F0E0E491F0E0EE0FFF1FE05789
:101A5000FF4F859194919093D2038093D10360E0DE
:101A600081E00E941C018091DE0381FD04C061E0E1
:101A700081E00E94EE0081E08093CC03EFEAF0E089
:101A8000E491E093CD03EBE9F0E0E491F0E0EE0FB8
:101A9000FF1FEA57FF4F859194919093CF03809356
:101AA000CE038091BC038C30B8F491E0980F9093F2
:101AB000BC038093BD0390E0FC01EE0FFF1FE80F15
:101AC000F91FE856FC4F88EB9BE092838183FF90DF
:101AD000EF90DF90CF9008958FEF8093BD03F7CF05
:101AE000CF93DF93CDB7DEB72A970FB6F894DEBF5A
:101AF0000FBECDBF789484B5826084BD84B581600B
:101B000084BD85B5826085BD85B5816085BD8091C8
:101B10006E00816080936E00109281008091810040
:101B20008260809381008091810081608093810038
:101B3000809180008160809380008091B1008460FA
:101B40008093B1008091B00081608093B00080915B
:101B50007A00846080937A0080917A00826080931A
:101B60007A0080917A00816080937A0080917A0077
:101B7000806880937A001092C100E0910B03F0918D
:101B80000C0382E08083E0910703F0910803108248
:101B9000E0910903F0910A038FEC80831092130304
:101BA000E0910F03F091100386E08083E0910D0334
:101BB000F0910E03808180618083E0910D03F091AC
:101BC0000E03808188608083E0910D03F0910E0305
:101BD000808180688083E0910D03F0910E03808105
:101BE0008F7D80831092DB031092DA031092D90369
:101BF0001092D8031092D7031092D6038DE991E08A
:101C00009093DD038093DC039091CC03963108F030
:101C100047C02DEB30E03093D7032093D6032BE958
:101C200031E03093D9032093D8032CE231E0309394
:101C3000DB032093DA032091680084E0983048F0B9
:101C400031E09E3008F430E081E001C0880F3A9521
:101C5000EAF7822B809368002DE630E0983050F050
:101C60002BE630E09E3030F02CE630E0963110F07C
:101C700030E020E03093D4032093D303292F30E0C9
:101C8000983008F0F2C081E001C0880F9A95EAF719
:101C90008093D5038091DC039091DD030197F1F7E8
:101CA0008091DA039091DB03892B49F1E091F002F6
:101CB000F091F10283E0E03CF80709F1309739F048
:101CC000A389B4899C918589809589238C9380917F
:101CD000DE038E7F8093DE031092EF021092EE02FD
:101CE00080EC93E09093F1028093F002E091D303B3
:101CF000F091D40380819091D503892B808362E099
:101D00008091FC030E941C012FB7F8948091F70288
:101D10009091F802A091F902B091FA022FBF805D74
:101D20009740A109B1098093000490930104A09306
:101D30000204B093030487E3809309048091BD03F8
:101D40008C3008F051C061E086E00E941C01809157
:101D5000BD03282F30E0F901EE0FFF1FE20FF31F44
:101D6000E856FC4F9081907C966090831092BE0361
:101D70001092BF032CE0622F0E947714829FB00163
:101D8000112430E020E0AB01420F531FFA01EE0FA7
:101D9000FF1FE40FF51FE856FC4F908196FD16C01B
:101DA0002F5F3F4F2C30310571F781110FC010921A
:101DB000800082E080938100109285001092840060
:101DC000B19A80916F00826080936F00E091BD03B3
:101DD0008E2F90E0FC01EE0FFF1FE80FF91FE85671
:101DE000FC4F80818064808360E08DE00E941C0154
:101DF00061E08BE00E941C0161E08CE00E941C010C
:101E000061E08AE00E941C0161E08AE00E941C01FE
:101E100082E00E94AE0560E080E00E9454066CE71C
:101E200071E08FED93E00E94E00781E00E94A80539
:101E30008BE39FE10197F1F76CE871E080EC93E0B0
:101E40000E94E0070E94AF01882341F08091FD03CA
:101E50008C3009F46FC0B0F48B3069F1C12CD12CF7
:101E600030ECE32E3FE7F32E50C09E3040F4285074
:101E7000310981E001C0880F2A95EAF709CF2E5079
:101E80003109F7CF8551823048F71091F903612F5E
:101E900070E0762F662766277F778091FA03682B9C
:101EA00090E080E00E94A3112DEC3CEC4CEC5DE353
:101EB0000E9404125BC06091F90370E090E080E042
:101EC0000E94A3116B017C011091FA0317FF0AC055
:101ED000AC019B0160E070E080E89FEB0E945F1323
:101EE0006B017C011F70612F70E090E080E00E9428
:101EF000A5112DEC3CEC4CEC5DE30E940412A70113
:101F000096010E9460136B017C010E94AF0188233F
:101F100051F08091FD038B3030F08D3080F1855190
:101F2000823008F40DC1412C512C20EC622E2FE799
:101F3000722E43C01091F903612F70E090E080E0B1
:101F40000E94A3116B017C016091FA036F7070E035
:101F500090E080E00E94A5112DEC3CEC4CEC5DE3A0
:101F60000E940412A70196010E9460136B017C017C
:101F700017FFCBCFF7FAF094F7F8F094C6CF609143
:101F8000F80370E090E080E00E94A5112DEC3CEC9D
:101F90004CEC5DE30E9404124B015C016091F7037D
:101FA00070E090E080E00E94A5119B01AC01C501AA
:101FB000B4010E9460132B013C01EFE7F0E0849133
:101FC000EBEBF0E00491E7EAF0E01491112309F45F
:101FD000C9C081110E94C500E12FF0E0EE0FFF1F84
:101FE000EA57FF4FA591B4918C91082309F4BAC028
:101FF0000E94160822242394312C60E080E00E9485
:10200000540667EA71E08FED93E00E94F407B10196
:102010008FED93E00E94C4066DEA71E08FED93E0CE
:102020000E94F40722E0B701A6018FED93E00E9421
:10203000FA0661E080E00E94540667EB71E08FEDE4
:1020400093E00E94F40722E0B301A2018FED93E038
:102050000E94FA0665EC71E08FED93E00E94E007C4
:1020600067EC71E080EC93E00E94F407B10180EC32
:1020700093E00E94C4066CEC71E080EC93E00E9457
:10208000F40722E0B701A60180EC93E00E94FA0673
:1020900065ED71E080EC93E00E94F40722E0B3016B
:1020A000A20180EC93E00E94FA0665EC71E080ECFE
:1020B00093E00E94E00780EC93E00E944804892BA3
:1020C00009F4BDC01A8219821C821B821E821D82E5
:1020D00070E060E0CE0101960E94CB0829813A8130
:1020E000811145C02115310519F0C9010E9425153E
:1020F0001A8219821E821D821C821B820E947F040A
:102100000D811E8197FD3BC08A309105C1F18F83FF
:1021100018860F5F1F4FB801CE0101960E94CB08B1
:10212000882361F329813A818D819E81BE01695F97
:102130007F4F820F931F0E947D161E830D83DECF7B
:102140006091F7037091F80376276727762790E070
:1021500080E00E94A3112DEC3CEC4CEC5DE30E946E
:10216000041229CF0E94F607312C212C46CF1E8263
:102170001D8264E471E0C9010E947D16BFCF898091
:102180009A808114910429F054010115110509F078
:1021900065C08D819E81892B09F44BC009811A810C
:1021A00063EE71E0C8010E947416892B09F08CC09F
:1021B0006AEE71E080EC93E00E94E00760E072E07C
:1021C00080EC93E00E94F407A101330C660B770BBF
:1021D0002AE080EC93E00E94780662E471E080ECF3
:1021E00093E00E9469066CE072E080EC93E00E944C
:1021F000F40722E0B701A60180EC93E00E94FA0602
:102200006AE172E080EC93E00E94E0076CE172E02A
:1022100080EC93E00E94F40722E0B301A20180EC7D
:1022200093E00E94FA0665EC71E080EC93E00E9476
:10223000E00789819A81009711F00E94251580E0BE
:1022400090E0892B09F4FECD0E942F03882309F426
:10225000F9CD0E940000F6CDA984BA84C50101968B
:102260009A878987F5018081082E000C990B0E94BE
:102270009511892B89F701501109080D191DF801D5
:102280008081082E000C990B0E949511892B31F04A
:102290000A151B0518F001501109F1CFA8014F5F75
:1022A0005F4F4A195B095E834D838A149B0420F4B7
:1022B000B501C4010E946B16E981FA818D819E816E
:1022C000E80FF91F108265CF67E272E0C8010E9433
:1022D0007416892B19F40E941608ABCF60E372E0E4
:1022E000C8010E947416892B09F0A3CF0E94F6073B
:1022F000A0CF8CE191E09093C1038093C0038091C3
:10230000F0029091F102805C934071F4E091D3036C
:10231000F091D40390818091D503809589238083A7
:102320001092F1021092F002089591110C94711222
:10233000803219F089508550C8F708950E94E01145
:1023400008F481E00895E89409C097FB3EF4909565
:102350008095709561957F4F8F4F9F4F9923A9F07E
:10236000F92F96E9BB279395F6958795779567950D
:10237000B795F111F8CFFAF4BB0F11F460FF1BC051
:102380006F5F7F4F8F4F9F4F16C0882311F096E9E4
:1023900011C0772321F09EE8872F762F05C0662392
:1023A00071F096E8862F70E060E02AF09A95660F4B
:1023B000771F881FDAF7880F9695879597F9089504
:1023C000990F0008550FAA0BE0E8FEEF1616170646
:1023D000E807F907C0F012161306E407F50798F0AE
:1023E000621B730B840B950B39F40A2661F0232BC7
:1023F000242B252B21F408950A2609F4A140A69543
:102400008FEF811D811D08950E9417120C948B126D
:102410000E947D1238F00E94841220F0952311F062
:102420000C9474120C947A1211240C94BF120E9412
:102430009C1270F3959FC1F3950F50E0551F629F5A
:10244000F001729FBB27F00DB11D639FAA27F00D0D
:10245000B11DAA1F649F6627B00DA11D661F829F34
:102460002227B00DA11D621F739FB00DA11D621F19
:10247000839FA00D611D221F749F3327A00D611D36
:10248000231F849F600D211D822F762F6A2F112418
:102490009F5750409AF0F1F088234AF0EE0FFF1F4B
:1024A000BB1F661F771F881F91505040A9F79E3FA2
:1024B000510580F00C9474120C94BF125F3FE4F34A
:1024C000983ED4F3869577956795B795F795E795F8
:1024D0009F5FC1F7FE2B880F911D9695879597F901
:1024E000089599278827089597F99F6780E870E0F5
:1024F00060E008959FEF80EC089500240A9416167A
:10250000170618060906089500240A9412161306E1
:10251000140605060895092E0394000C11F488236F
:1025200052F0BB0F40F4BF2B11F460FF04C06F5F8B
:102530007F4F8F4F9F4F089557FD9058440F551F61
:1025400059F05F3F71F04795880F97FB991F61F035
:102550009F3F79F087950895121613061406551FAC
:10256000F2CF4695F1DF08C0161617061806991F18
:10257000F1CF86957105610508940895E894BB270D
:1025800066277727CB0197F90895052E97FB1EF450
:1025900000940E94DC1257FD07D00E942E1307FC06
:1025A00003D04EF40C94DC12509540953095219553
:1025B0003F4F4F4F5F4F089590958095709561956F
:1025C0007F4F8F4F9F4F08950E945013A59F900DEE
:1025D000B49F900DA49F800D911D11240895B7FF05
:1025E0000C94E4120E94E412821B930B08952F9224
:1025F0003F924F925F926F927F928F929F92AF9293
:10260000BF92CF92DF92EF92FF920F931F93CF93DF
:10261000DF93CDB7DEB7CA1BDB0B0FB6F894DEBF76
:102620000FBECDBF09942A88398848885F846E849C
:102630007D848C849B84AA84B984C884DF80EE80E6
:10264000FD800C811B81AA81B981CE0FD11D0FB6EF
:10265000F894DEBF0FBECDBFED010895A1E21A2EA2
:10266000AA1BBB1BFD010DC0AA1FBB1FEE1FFF1F36
:10267000A217B307E407F50720F0A21BB30BE40B86
:10268000F50B661F771F881F991F1A9469F76095CD
:102690007095809590959B01AC01BD01CF01089587
:1026A000A29FB001B39FC001A39F700D811D112493
:1026B000911DB29F700D811D1124911D08955058D8
:1026C000BB27AA270E9477130C948B120E947D12BD
:1026D00038F00E94841220F039F49F3F19F426F458
:1026E0000C947A120EF4E095E7FB0C947412E92F27
:1026F0000E949C1258F3BA17620773078407950764
:1027000020F079F4A6F50C94BE120EF4E0950B2E91
:10271000BA2FA02D0B01B90190010C01CA01A00133
:102720001124FF27591B99F0593F50F4503E68F18E
:102730001A16F040A22F232F342F4427585FF3CFCF
:10274000469537952795A795F0405395C9F77EF4A0
:102750001F16BA0B620B730B840BBAF09150A1F0E9
:10276000FF0FBB1F661F771F881FC2F70EC0BA0F6F
:10277000621F731F841F48F4879577956795B795F7
:10278000F7959E3F08F0B0CF9395880F08F09927F2
:10279000EE0F9795879508950E94E0130C948B1285
:1027A0000E94841258F00E947D1240F029F45F3F8D
:1027B00029F00C94741251110C94BF120C947A12DB
:1027C0000E949C1268F39923B1F3552391F3951B52
:1027D000550BBB27AA2762177307840738F09F5F42
:1027E0005F4F220F331F441FAA1FA9F335D00E2EAF
:1027F0003AF0E0E832D091505040E695001CCAF71C
:102800002BD0FE2F29D0660F771F881FBB1F2617DE
:1028100037074807AB07B0E809F0BB0B802DBF01B5
:10282000FF2793585F4F3AF09E3F510578F00C9484
:1028300074120C94BF125F3FE4F3983ED4F3869574
:1028400077956795B795F7959F5FC9F7880F911DA5
:102850009695879597F90895E1E0660F771F881F91
:10286000BB1F621773078407BA0720F0621B730B44
:10287000840BBA0BEE1F88F7E09508950E94A4120E
:1028800088F09F5798F0B92F9927B751B0F0E1F031
:10289000660F771F881F991F1AF0BA95C9F714C0E1
:1028A000B13091F00E94BE12B1E008950C94BE12B6
:1028B000672F782F8827B85F39F0B93FCCF386951A
:1028C00077956795B395D9F73EF490958095709577
:1028D00061957F4F8F4F9F4F08950E94E01108F43C
:1028E0008FEF08950E94E011880B990B0895991BB2
:1028F00079E004C0991F961708F0961B881F7A95F7
:10290000C9F780950895EE0FFF1F0590F491E02D13
:1029100009940F931F93CF93DF938230910510F4A6
:1029200082E090E0E0910C04F0910D0430E020E0B2
:10293000B0E0A0E0309799F42115310509F44AC0C0
:10294000281B390B24303105D8F58A819B8161150C
:10295000710589F1FB0193838283FE0111C04081DF
:1029600051810281138148175907E0F04817590730
:1029700099F4109761F012960C93129713961C938A
:102980003296CF01DF91CF911F910F91089500935F
:102990000C0410930D04F4CF2115310551F04217AA
:1029A000530738F0A901DB019A01BD01DF01F801ED
:1029B000C1CFEF01F9CF90930D0480930C04CDCFDC
:1029C000FE01E20FF31F8193919322503109398365
:1029D0002883D7CF20910A0430910B04232B41F494
:1029E000209102013091030130930B0420930A04DB
:1029F00020910001309101012115310541F42DB7DD
:102A00003EB74091040150910501241B350BE09124
:102A10000A04F0910B04E217F307A0F42E1B3F0BFE
:102A20002817390778F0AC014E5F5F4F2417350740
:102A300048F04E0F5F1F50930B0440930A0481939C
:102A400091939FCFF0E0E0E09CCFCF93DF9300978E
:102A5000E9F0FC01329713821282A0910C04B0912C
:102A60000D04ED0130E020E01097A1F420813181C8
:102A7000820F931F20910A0430910B042817390705
:102A800009F061C0F0930B04E0930A04DF91CF9149
:102A90000895EA01CE17DF07E8F54A815B819E01C0
:102AA00041155105B1F7E901FB83EA834991599139
:102AB000C40FD51FEC17FD0761F480819181029648
:102AC000840F951FE90199838883828193819B8379
:102AD0008A83F0E0E0E012968D919C911397009725
:102AE000B9F52D913C911197CD010296820F931F5C
:102AF00020910A0430910B042817390739F63097D2
:102B000051F510920D0410920C04B0930B04A09395
:102B10000A04BCCFD383C28340815181840F951FA7
:102B2000C817D90761F44E5F5F4F88819981480FBC
:102B3000591F518340838A819B819383828321150E
:102B4000310509F0B0CFF0930D04E0930C049ECF53
:102B5000FD01DC01C0CF13821282D7CFB0E0A0E02C
:102B6000E4EBF5E10C94F9128C01009751F4CB01E0
:102B70000E9489148C01C801CDB7DEB7E0E10C9446
:102B80001513FC01E60FF71F9C0122503109E217D3
:102B9000F30708F49DC0D901CD91DC911197C617B8
:102BA000D70798F0C530D10530F3CE0104978617CA
:102BB000970708F3C61BD70B2297C193D1936D9348
:102BC0007C93CF010E942515D6CF5B01AC1ABD0ABC
:102BD0004C018C0E9D1EA0910C04B0910D04512C43
:102BE000412CF12CE12C109731F580910A04909141
:102BF0000B048815990509F05CC04616570608F0C5
:102C000058C08091000190910101009741F48DB767
:102C10009EB74091040150910501841B950BE81764
:102C2000F90708F055C0F0930B04E0930A04F9018A
:102C300071836083A0CF8D919C91119712966C90B7
:102C4000129713967C901397A815B90559F56C0146
:102C500042E0C40ED11CCA14DB0420F1AC014A19B5
:102C60005B09DA011296159780F0628273825183B4
:102C70004083D9016D937C93E114F10471F0D70185
:102C80001396FC93EE93129776CF22968C0F9D1F8E
:102C9000F90191838083F301EFCFF0930D04E0936A
:102CA0000C0469CF4816590608F42C017D01D301A4
:102CB0009ACFCB010E9489147C01009749F0AE01A4
:102CC000B8010E946B16C8010E942515870153CFD9
:102CD00010E000E050CFFB01DC0102C001900D923A
:102CE00041505040D8F70895FB01DC018D910190CF
:102CF00080190110D9F3990B0895FB01DC010190B3
:102D00000D920020E1F7089510E0C2E6D0E004C083
:102D1000FE010E9483142196C336D107C9F7F894A7
:022D2000FFCFE3
:102D220000000E048000000000006503C502F202EC
:102D3200B20323030103150300000000EC03C502E4
:102D42000F05EB0348045E04D30300000000630692
:102D5200C5020F05D2036E616E00696E66006F7662
:102D620066000D0A00202020202020005374617488
:102D720075733A204E6F726D616C00414C4552542E
:102D82002100E29AA0EFB88F20474153204C4541E1
:102D92004B2044455445435445442100496E6974CF
:102DA200204761732053656E736F72004761732011
:102DB200446574656374696F6E2053797374656DCD
:102DC200205265616479004761733A2000207C20BB
:102DD20054656D703A2000C2B043207C2048756D66
:102DE20069643A200025004761733A00207C205430
:102DF200656D703A0043207C2048756D6964697482
:102E0200793A00535441545553003D3D3D20537986
:102E12007374656D20537461747573203D3D3D007C
:102E2200476173204C6576656C3A200054656D707D
:102E3200657261747572653A2000430048756D6968
:102E4200646974793A2000414C41524D204F4E0042
:0A2E5200414C41524D204F4646000E
:00000001FF
